:020000040800F2
:1000000000000220850B0008650200086902000854
:100010006D0200087102000875020008000000006F
:10002000000000000000000000000000790200084D
:100030007D0200080000000081020008850200081F
:10004000D50B0008D50B0008D50B0008D50B000810
:10005000D50B0008D50B0008D50B0008D50B000800
:10006000D50B0008D50B0008D50B0008D50B0008F0
:10007000D50B0008D50B0008D50B0008D50B0008E0
:10008000D50B0008D50B0008D50B0008D50B0008D0
:10009000D50B0008D50B0008D50B0008D50B0008C0
:1000A000D50B0008D50B0008D50B0008D50B0008B0
:1000B000D50B0008D50B0008D50B0008D50B0008A0
:1000C000D50B0008D50B0008D50B0008D50B000890
:1000D000D50B0008D50B0008D50B0008D50B000880
:1000E000D50B0008D50B0008D50B0008D50B000870
:1000F000D50B0008D50B0008D50B0008D50B000860
:10010000D50B0008D50B0008D50B0008D50B00084F
:10011000D50B0008D50B0008D50B0008D50B00083F
:10012000D50B0008D50B0008D50B0008D50B00082F
:10013000D50B0008D50B0008D50B0008D50B00081F
:10014000D50B0008D50B0008D50B0008D50B00080F
:10015000D50B0008D50B0008D50B0008D50B0008FF
:10016000D50B0008D50B0008D50B0008D50B0008EF
:10017000D50B0008D50B0008D50B0008D50B0008DF
:08018000D50B0008D50B0008A7
:1001880010B5054C237833B9044B13B10448AFF3C9
:1001980000800123237010BD5804002000000000D7
:1001A800CC0E000808B5064B1BB106480649AFF34C
:1001B80000800648036813B1054B03B1984708BD92
:1001C80000000000CC0E00085C040020540400204D
:1001D80000000000154B002B08BF134B9D46A3F5EC
:1001E800803A00218B460F461348144A121A00F031
:1001F80027FD0F4B002B00D098470E4B002B00D04B
:1002080098470020002104000D000D48002802D066
:100218000C4800F0E1FD00F0EBFC2000290000F0A4
:100228005DFC00F0D5FC00BF0000080000000000E5
:100238000000000000000000580400207C0400209A
:10024800E10D0008ED0D000882B00190019B5A1ED7
:100258000192002BFAD102B0704700BF704700BF6F
:10026800FEE700BFFEE700BFFEE700BFFEE700BFF6
:10027800704700BF704700BF704700BF704700BF9E
:10028800354B36481968002241F0010119609A601F
:10029800196821F0847121F4803119605860196857
:1002A80082B021F480211960DA60009201921A6804
:1002B80042F480321A601A4603E0009BB3F5A06F3F
:1002C80009D0136803F400330193009B01330093B2
:1002D800019B002BF1D0204B1B6813F4003318BF8F
:1002E80001230193019B012B05D01D4B4FF00062A8
:1002F8009A6002B07047184B1A4A186C1A4940F0B5
:1003080080501864106840F4804010609A689A60C1
:100318009A6842F400429A609A6842F4A0529A603D
:1003280059601A6842F080721A6019460B680A4AC6
:100338009B01FBD50D4B40F205611960936823F0D2
:1003480003039360936843F002039360936803F098
:100358000C03082BFAD1C8E70038024010300024FB
:1003680000ED00E00070004008544007003C0240E7
:10037800154B9A6802F00C02042A23D0082A09D0E7
:10038800124A1149124B8968C1F30311595CCA40DA
:100398001A617047586859685B6842024CBF0D4A39
:1003A8000A4A01F03F01C3F38813B2FBF1F202FBE2
:1003B80003F2054B5B68C3F3014301335B00B2FBF7
:1003C800F3F2DEE7034ADCE7003802400024F400D9
:1003D8000400002040787D01FC0E00080000002089
:1003E80054040020580400207C0400200A4B0B48C9
:1003F8001A68002142F001021A6099601A6822F016
:10040800847222F480321A6058601A6822F48022BA
:100418001A60D960704700BF0038024010300024CD
:10042800024B00221A701870704700BF0238024051
:1004380082B000230B4A019313689B030CD4019BE1
:1004480001330193019BB3F5A06FF5D1054B1868F3
:10045800C0F3404002B07047019B01330193019BF8
:10046800F4E700BF00380240034B1A6822F0F80294
:1004780042EAC0001860704700380240014B18601B
:10048800704700BF00004742064B002201281A703F
:100498001A7005D0042802D105221A7070477047D7
:1004A8001870704770380240014B1860704700BFE1
:1004B800800E474230B4029C064D40EA04605B0857
:1004C8000143013B41EA821242EA03436B6030BCBC
:1004D800704700BF00380240014B1860704700BFEA
:1004E800600047420907034B41EA8010C3F88400C3
:1004F800704700BF00380240014B1860704700BFCA
:1005080068004742014B1860704700BF4C004742E3
:10051800034B9A6822F0EC621143084398607047D5
:1005280000380240034B9A6822F07842114308438E
:100538009860704700380240034B9A6822F0030223
:1005480010439860704700BF00380240024B98681B
:1005580000F00C00704700BF00380240034B9A6857
:1005680022F0F00210439860704700BF0038024044
:10057800034B9A6822F4E05210439860704700BF1A
:1005880000380240034B9A6822F4604242EAC000F5
:1005980098607047003802401F4A936803F00C03C4
:1005A800042B10B41BD0082B1CD01C4B03601A4919
:1005B8001B4A8C68C4F30314145DE34043608C68E1
:1005C800C4F38224145D23FA04F4846089685DF816
:1005D800044BC1F34231525CD340C3607047114BA6
:1005E8000360E4E754685168526863024CBF0D4BDE
:1005F8000A4B01F03F01C2F38812B3FBF1F303FB8E
:1006080002F3054A5268C2F3014201325200B3FBB9
:10061800F2F30360CBE700BF003802400024F40087
:100628001800002040787D0100F44073B3F5407F46
:1006380009D1084A916820F0704321F4F81123F495
:1006480040730B439360034B1A6FC0F30B001043C6
:100658001867704700380240014B1860704700BFA8
:100668003C0E4742014B1860704700BF400E47429E
:10067800014B1860704700BF5C014742044B1A6B7E
:1006880019B922EA000018637047104318637047CD
:1006980000380240044B5A6B19B922EA000058632B
:1006A800704710435863704700380240044B9A6BF8
:1006B80019B922EA0000986370471043986370479D
:1006C80000380240044B1A6C19B922EA0000186479
:1006D800704710431864704700380240044B5A6C46
:1006E80019B922EA000058647047104358647047EB
:1006F80000380240044B1A6919B922EA000018614F
:10070800704710431861704700380240044B5A691B
:1007180019B922EA000058617047104358617047C0
:1007280000380240044B9A6919B922EA000098611E
:10073800704710439861704700380240044B1A6AAA
:1007480019B922EA0000186270471043186270470E
:1007580000380240044B5A6A19B922EA000058626C
:10076800704710435862704700380240044B1A6DB6
:1007780019B922EA000018657047104318657047D8
:1007880000380240044B5A6D19B922EA0000586536
:10079800704710435865704700380240044B9A6D03
:1007A80019B922EA000098657047104398657047A8
:1007B80000380240044B1A6E19B922EA0000186684
:1007C800704710431866704700380240044B5A6E51
:1007D80019B922EA000058667047104358667047F6
:1007E80000380240044B1A7819B922EA0000187040
:1007F80070471043187070470D3802404309012BA9
:100808000BD0022B094B0CBF1B6F5B6F00F01F0056
:1008180023FA00F000F001007047044B1B6800F059
:100828001F0023FA00F000F0010070470038024072
:10083800024B5A6F42F080725A6770470038024084
:10084800034BDB6818420CBF00200120704700BF33
:1008580000380240014B1870704700BF0E38024044
:1008680008B53C4B984224D03B4B98422BD03B4B8D
:10087800984232D03A4B984239D03A4B984240D0BD
:10088800394B984247D0394B98424ED0384B984212
:1008980055D0384B984200D008BD4FF480700121E4
:1008A800FFF728FF4FF480700021BDE80840FFF7EC
:1008B80021BF01200146FFF71DFF01200021BDE8EF
:1008C8000840FFF717BF02200121FFF713FF02209E
:1008D8000021BDE80840FFF70DBF04200121FFF704
:1008E80009FF04200021BDE80840FFF703BF0820E6
:1008F8000121FFF7FFFE08200021BDE80840FFF7AF
:10090800F9BE10200121FFF7F5FE10200021BDE8F7
:100918000840FFF7EFBE20200121FFF7EBFE202063
:100928000021BDE80840FFF7E5BE40200121FFF7A0
:10093800E1FE40200021BDE80840FFF7DBBE802033
:100948000121FFF7D7FE80200021BDE80840FFF70E
:10095800D1BE00BF0000024000040240000802406F
:10096800000C02400010024000140240001802402F
:10097800001C02400020024000222DE9F007134627
:100988000E6801274FF0030804E00133102B02F131
:1009980002022CD007FA03F404EA0605A542F4D1B2
:1009A800D0F8009091F804C008FA02F4E44304EA8D
:1009B8000909C0F80090D0F800900CFA02FA0CF17E
:1009C800FF3C4AEA0909BCF1010FC0F8009011D9AF
:1009D800C56891F807C02C40C460C5680CFA02F4D9
:1009E80001332C43102BC46002F10202D2D1BDE8BE
:1009F800F0077047D0F808A091F8059091F806C064
:100A080004EA0A0AC0F808A0D0F808A009FA02F90E
:100A180049EA0A09C0F80890D0F8049029EA0505BF
:100A2800456045680CFA03FC1FFA8CFC4CEA050586
:100A38004560CDE700234FF6FF72026003714371F2
:100A48008371C371704700BF82B04FF48033019344
:100A5800019B0B430193019BC361C161019BC3616E
:100A6800C3690193C369019302B0704703691942CE
:100A78000CBF002001207047006980B2704700BF9A
:100A8800436919420CBF002001207047406980B2B9
:100A9800704700BF01837047418370470AB941839B
:100AA80070470183704700BF4161704743695940EF
:100AB80041617047CB0800EB830001F0070110B4D7
:100AC8008900046A0F238B4024EA03030362036A44
:100AD8005DF8044B8A4013430362704708B5082049
:100AE8000121FFF7CBFD214B214800224FF470462E
:100AF8000125032419461E601D715C719A71DA7113
:100B0800FFF73AFF1A484FF48051FFF7C3FF194B1C
:100B18001A46013B002AFBD115484FF40051FFF754
:100B2800B9FF144B1A46013B002AFBD110484FF479
:100B38008041FFF7AFFF0F4B1A46013B002AFBD15C
:100B48000B484FF40041FFF7A5FF0B4B1A46013B3A
:100B5800002AFBD106484FF47041FFF79DFF6FF064
:100B68007F431A46013B002AFBD1CBE774040020DF
:100B7800000C0240FFFF3F00FFFF7F00002100F054
:100B880004B80D4B5B58435004310C480C4B4218C9
:100B98009A42FFF4F6AF0B4A00F003B8002342F87C
:100BA800043B094B9A42FFF4F9AFFFF769FB00F0E9
:100BB8001FF8FFF793FF7047FC0E000800000020A5
:100BC80054040020580400207C040020FFF7FEBFD6
:100BD80008B50021044600F087F8044B1868C36B79
:100BE80003B19847204600F07BF900BFC80E000803
:100BF80070B50F4E0F4D761BB61007D0043D00247C
:100C0800013455F8043F9847A642F9D10A4E0B4DD6
:100C1800761B00F059F9B61008D0043D00240134C1
:100C280055F8043F9847A642F9D170BD70BD00BF82
:100C3800F00E0008F00E0008F80E0008F00E00088C
:100C4800F0B4840743D0541E002A3ED0CDB20346E8
:100C580003E0621E002C38D0144603F8015B9A07A3
:100C6800F7D1032C2AD9CDB245EA05250F2C45EA40
:100C7800054515D9A4F110073F0903F1100606EB45
:100C880007161A46156055609560D5601032B24255
:100C9800F8D104F00F040137032C03EB07130DD927
:100CA8001E462246043A032A46F8045BFAD8221F55
:100CB80022F003020432134404F003042CB1C9B235
:100CC8001C4403F8011BA342FBD1F0BC7047144637
:100CD8000346C6E7024B13B1024800F07DB87047DF
:100CE80000000000ED0D00082DE9F04F384B1B689F
:100CF80085B003F5A472019302900F460392019BFD
:100D0800D3F84881B8F1000F1CD0DDF80CB04FF0D3
:100D18000109DA46D8F804305C1E11D408F18805B8
:100D28009E1C05EB830508EB860677B1EB6FBB428B
:100D38000BD0013C631CA5F10405A6F10406F4D10F
:100D4800244A7ABB05B0BDE8F08FD8F8042056F8DD
:100D5800043C013AA24216BF0022C8F8044046F8F3
:100D6800042C002BE5D0D8F88811D8F804B009FA7B
:100D780004F20A4210D0D8F88C110A420ED1029817
:100D880055F8041C9847D8F804305B45B7D1DAF811
:100D980000304345CDD0B2E79847F4E755F8040C46
:100DA8009847F0E7D8F804306BB9D8F8003063B149
:100DB8004046CAF80030AFF30080DAF80080B8F196
:100DC800000FA7D1BEE7D8F80030C2469846F6E72C
:100DD800C80E000800000000014600200246034635
:100DE80000F018B838B5094D094C641BA41018BF99
:100DF80005EB840505D0013C55F8043D9847002CC7
:100E0800F9D1BDE8384000F065B800BFF80E000819
:100E1800FC0E0008F0B5274C2668D6F8484185B086
:100E28000746002C41D065681F2D1EDD224818B9E1
:100E38004FF0FF3005B0F0BD4FF4C8700391029237
:100E48000193AFF300800399029A019B044600289E
:100E5800EED0D6F848512560002060600546C6F8F7
:100E68004841C4F88801C4F88C013FB9AB1C002084
:100E78000135656044F8231005B0F0BD04EB85002A
:100E88004FF0010CC0F88820D4F888610CFA05F2FC
:100E98001643022FC4F88861C0F80831E6D1D4F8A7
:100EA8008C311A43C4F88C21E0E706F5A674C6F81D
:100EB8004841B8E7C80E00080000000043000000E1
:100EC8002800002000000000F8B500BFF8BC08BCEE
:100ED8009E467047F8B500BFF8BC08BC9E467047F0
:080EE800F4F2FF7F010000009D
:080EF000DD0C0008AD01000853
:040EF8008901000864
:100EFC0000000000000000000000000001020304DC
:100F0C0006070809007A030A000000000102030426
:100F1C000102030406070809000000001403002066
:100F2C007C030020E403002000000000000000000F
:100F3C0000000000000000000000000000000000A5
:100F4C00000000000000000000000000C40E0008BB
:100F5C000000000000000000000000000000000085
:100F6C000000000000000000000000000000000075
:100F7C000000000000000000000000000000000065
:100F8C000000000000000000000000000000000055
:100F9C000000000000000000000000000000000045
:100FAC000000000000000000000000000000000035
:100FBC000000000000000000000000000000000025
:100FCC0001000000000000000E33CDAB34126DE6C2
:100FDC00ECDE05000B00000000000000000000002B
:100FEC0000000000000000000000000000000000F5
:100FFC0000000000000000000000000000000000E5
:10100C0000000000000000000000000000000000D4
:10101C0000000000000000000000000000000000C4
:04134C002800002055
:041350000000000099
:0400000508000B855F
:00000001FF
